{
  "contractName": "ExampleContract",
  "abi": [
    {
      "constant": true,
      "inputs": [],
      "name": "someNumber",
      "outputs": [
        {
          "name": "",
          "type": "uint256"
        }
      ],
      "payable": false,
      "stateMutability": "view",
      "type": "function"
    },
    {
      "constant": false,
      "inputs": [
        {
          "name": "_number",
          "type": "uint256"
        }
      ],
      "name": "setNumber",
      "outputs": [
        {
          "name": "",
          "type": "bool"
        }
      ],
      "payable": false,
      "stateMutability": "nonpayable",
      "type": "function"
    },
    {
      "constant": true,
      "inputs": [
        {
          "name": "_number",
          "type": "uint256"
        }
      ],
      "name": "addNumbers",
      "outputs": [
        {
          "name": "",
          "type": "uint256"
        }
      ],
      "payable": false,
      "stateMutability": "view",
      "type": "function"
    }
  ],
  "bytecode": "0x608060405234801561001057600080fd5b5061013a806100206000396000f3fe608060405234801561001057600080fd5b50600436106100415760003560e01c80632be55998146100465780633fb5c1cb14610088578063931c9b99146100ce575b600080fd5b6100726004803603602081101561005c57600080fd5b81019080803590602001909291905050506100ec565b6040518082815260200191505060405180910390f35b6100b46004803603602081101561009e57600080fd5b81019080803590602001909291905050506100fa565b604051808215151515815260200191505060405180910390f35b6100d6610108565b6040518082815260200191505060405180910390f35b600081600054019050919050565b600081600081905550919050565b6000548156fea165627a7a723058207843194ccd9bed74765547e491bcac5f2958a00d60b04623eedd4d70f714a3d30029",
  "source": "pragma solidity ^0.5.8;\n\n// Set and get a number\ncontract ExampleContract {\n    uint public someNumber;\n\n    function setNumber(uint256 _number) public returns (bool) {\n        someNumber = _number;\n    }\n\n    function addNumbers(uint256 _number) view public returns (uint256) {\n        return someNumber + _number;\n    }\n}",
  "sourcePath": "/Users/chainist/code/web3/callingOtherContracts/contracts/ExampleContract.sol",
  "compiler": {
    "name": "solc",
    "version": "0.5.8+commit.23d335f2.Emscripten.clang"
  },
  "schemaVersion": "3.0.11",
  "updatedAt": "2019-07-05T04:23:28.519Z",
  "devdoc": {
    "methods": {}
  },
  "userdoc": {
    "methods": {}
  }
}