{
  "contractName": "ExampleContractInterface",
  "abi": [
    {
      "constant": true,
      "inputs": [
        {
          "name": "_number",
          "type": "uint256"
        }
      ],
      "name": "addNumbers",
      "outputs": [
        {
          "name": "",
          "type": "uint256"
        }
      ],
      "payable": false,
      "stateMutability": "view",
      "type": "function"
    }
  ],
  "bytecode": "0x6080604052348015600f57600080fd5b50609f8061001e6000396000f3fe6080604052348015600f57600080fd5b506004361060285760003560e01c80632be5599814602d575b600080fd5b605660048036036020811015604157600080fd5b8101908080359060200190929190505050606c565b6040518082815260200191505060405180910390f35b600091905056fea165627a7a723058203236034e2fc74c5cf5995fb72c7c74b6e29e183c3671a5c203a17bc1f77662810029",
  "source": "pragma solidity ^0.5.8;\n\n// The interface is a definition of the contract we want to interact with.\n// We do not need the full contract here\n// The ExampleUser contract only needs to know about the functions we are going to use\ncontract ExampleContractInterface {\n    function addNumbers (uint256 _number) view public returns (uint256) {}\n}\n\n\n// The main contract \n// It uses the interface created above\ncontract ExampleUser {\n    // @dev - exampleContract has type set to the interface\n    ExampleContractInterface private exampleContract;\n    uint256 public addedNumbers;\n\n   // Setting the contract address\n    constructor(address _exampleContractAddress) public {\n        require(_exampleContractAddress != address(0));\n\n        exampleContract = ExampleContractInterface(_exampleContractAddress);\n    }\n\n    function addNumbers(uint256 _number) public returns (bool) {\n        // Call the function located in other contract\n        addedNumbers = exampleContract.addNumbers(_number);\n        return true;\n    }\n}",
  "sourcePath": "/Users/chainist/code/web3/callingOtherContracts/contracts/ExampleUser.sol",
  "compiler": {
    "name": "solc",
    "version": "0.5.8+commit.23d335f2.Emscripten.clang"
  },
  "schemaVersion": "3.0.11",
  "updatedAt": "2019-07-05T04:23:28.519Z",
  "devdoc": {
    "methods": {}
  },
  "userdoc": {
    "methods": {}
  }
}