{
  "contractName": "ExampleUser",
  "abi": [
    {
      "constant": true,
      "inputs": [],
      "name": "addedNumbers",
      "outputs": [
        {
          "name": "",
          "type": "uint256"
        }
      ],
      "payable": false,
      "stateMutability": "view",
      "type": "function"
    },
    {
      "inputs": [
        {
          "name": "_exampleContractAddress",
          "type": "address"
        }
      ],
      "payable": false,
      "stateMutability": "nonpayable",
      "type": "constructor"
    },
    {
      "constant": false,
      "inputs": [
        {
          "name": "_number",
          "type": "uint256"
        }
      ],
      "name": "addNumbers",
      "outputs": [
        {
          "name": "",
          "type": "bool"
        }
      ],
      "payable": false,
      "stateMutability": "nonpayable",
      "type": "function"
    }
  ],
  "bytecode": "0x608060405234801561001057600080fd5b5060405160208061025a8339810180604052602081101561003057600080fd5b8101908080519060200190929190505050600073ffffffffffffffffffffffffffffffffffffffff168173ffffffffffffffffffffffffffffffffffffffff16141561007b57600080fd5b806000806101000a81548173ffffffffffffffffffffffffffffffffffffffff021916908373ffffffffffffffffffffffffffffffffffffffff1602179055505061018f806100cb6000396000f3fe608060405234801561001057600080fd5b50600436106100365760003560e01c80632be559981461003b57806361afca0514610081575b600080fd5b6100676004803603602081101561005157600080fd5b810190808035906020019092919050505061009f565b604051808215151515815260200191505060405180910390f35b61008961015d565b6040518082815260200191505060405180910390f35b60008060009054906101000a900473ffffffffffffffffffffffffffffffffffffffff1673ffffffffffffffffffffffffffffffffffffffff16632be55998836040518263ffffffff1660e01b81526004018082815260200191505060206040518083038186803b15801561011357600080fd5b505afa158015610127573d6000803e3d6000fd5b505050506040513d602081101561013d57600080fd5b810190808051906020019092919050505060018190555060019050919050565b6001548156fea165627a7a723058206efe77615448d1e68e82d156fab42fe3f9ccd8ebb565b829e3321bffab1ec85d0029",
  "source": "pragma solidity ^0.5.8;\n\n// The interface is a definition of the contract we want to interact with.\n// We do not need the full contract here\n// The ExampleUser contract only needs to know about the functions we are going to use\ncontract ExampleContractInterface {\n    function addNumbers (uint256 _number) view public returns (uint256) {}\n}\n\n\n// The main contract \n// It uses the interface created above\ncontract ExampleUser {\n    // @dev - exampleContract has type set to the interface\n    ExampleContractInterface private exampleContract;\n    uint256 public addedNumbers;\n\n   // Setting the contract address\n    constructor(address _exampleContractAddress) public {\n        require(_exampleContractAddress != address(0));\n\n        exampleContract = ExampleContractInterface(_exampleContractAddress);\n    }\n\n    function addNumbers(uint256 _number) public returns (bool) {\n        // Call the function located in other contract\n        addedNumbers = exampleContract.addNumbers(_number);\n        return true;\n    }\n}",
  "sourcePath": "/Users/chainist/code/web3/callingOtherContracts/contracts/ExampleUser.sol",
  "compiler": {
    "name": "solc",
    "version": "0.5.8+commit.23d335f2.Emscripten.clang"
  },
  "schemaVersion": "3.0.11",
  "updatedAt": "2019-07-05T04:23:28.520Z",
  "devdoc": {
    "methods": {}
  },
  "userdoc": {
    "methods": {}
  }
}